{
    "contractName": "Donation",
    "abi": [
        {
            "inputs": [],
            "stateMutability": "nonpayable",
            "type": "constructor"
        },
        {
            "inputs": [
                {
                    "internalType": "uint256",
                    "name": "_requestNo",
                    "type": "uint256"
                }
            ],
            "name": "Donate",
            "outputs": [],
            "stateMutability": "payable",
            "type": "function"
        },
        {
            "inputs": [],
            "name": "DonationCount",
            "outputs": [
                {
                    "internalType": "uint256",
                    "name": "",
                    "type": "uint256"
                }
            ],
            "stateMutability": "view",
            "type": "function"
        },
        {
            "inputs": [
                {
                    "internalType": "uint256",
                    "name": "",
                    "type": "uint256"
                },
                {
                    "internalType": "address",
                    "name": "",
                    "type": "address"
                }
            ],
            "name": "DonorAmount",
            "outputs": [
                {
                    "internalType": "uint256",
                    "name": "",
                    "type": "uint256"
                }
            ],
            "stateMutability": "view",
            "type": "function"
        },
        {
            "inputs": [],
            "name": "ReqCount",
            "outputs": [
                {
                    "internalType": "uint256",
                    "name": "",
                    "type": "uint256"
                }
            ],
            "stateMutability": "view",
            "type": "function"
        },
        {
            "inputs": [],
            "name": "getBalance",
            "outputs": [
                {
                    "internalType": "uint256",
                    "name": "",
                    "type": "uint256"
                }
            ],
            "stateMutability": "view",
            "type": "function"
        },
        {
            "inputs": [
                {
                    "internalType": "string",
                    "name": "_description",
                    "type": "string"
                },
                {
                    "internalType": "uint32",
                    "name": "_startAt",
                    "type": "uint32"
                },
                {
                    "internalType": "uint32",
                    "name": "_id",
                    "type": "uint32"
                }
            ],
            "name": "makeRequest",
            "outputs": [],
            "stateMutability": "nonpayable",
            "type": "function"
        },
        {
            "inputs": [],
            "name": "minAmount",
            "outputs": [
                {
                    "internalType": "uint256",
                    "name": "",
                    "type": "uint256"
                }
            ],
            "stateMutability": "view",
            "type": "function"
        },
        {
            "inputs": [],
            "name": "org",
            "outputs": [
                {
                    "internalType": "address payable",
                    "name": "",
                    "type": "address"
                }
            ],
            "stateMutability": "view",
            "type": "function"
        },
        {
            "inputs": [
                {
                    "internalType": "uint256",
                    "name": "",
                    "type": "uint256"
                }
            ],
            "name": "requests",
            "outputs": [
                {
                    "internalType": "uint32",
                    "name": "id",
                    "type": "uint32"
                },
                {
                    "internalType": "address",
                    "name": "creator",
                    "type": "address"
                },
                {
                    "internalType": "uint32",
                    "name": "startAt",
                    "type": "uint32"
                },
                {
                    "internalType": "uint256",
                    "name": "totalAmount",
                    "type": "uint256"
                },
                {
                    "internalType": "string",
                    "name": "description",
                    "type": "string"
                }
            ],
            "stateMutability": "view",
            "type": "function"
        },
        {
            "inputs": [
                {
                    "internalType": "address payable",
                    "name": "p",
                    "type": "address"
                },
                {
                    "internalType": "uint256",
                    "name": "_amt",
                    "type": "uint256"
                }
            ],
            "name": "sendfund",
            "outputs": [],
            "stateMutability": "payable",
            "type": "function"
        },
        {
            "inputs": [],
            "name": "token",
            "outputs": [
                {
                    "internalType": "contract IERC20",
                    "name": "",
                    "type": "address"
                }
            ],
            "stateMutability": "view",
            "type": "function"
        },
        {
            "inputs": [],
            "name": "totalDonationAmount",
            "outputs": [
                {
                    "internalType": "uint256",
                    "name": "",
                    "type": "uint256"
                }
            ],
            "stateMutability": "view",
            "type": "function"
        }
    ],
    "bytecode": "608060405234801561001057600080fd5b50600780546001600160a01b031916331790556103e860065561098f806100386000396000f3fe6080604052600436106100a75760003560e01c80639b2cb5d8116100645780639b2cb5d81461015d578063a265d74b14610173578063afe9ee3d14610189578063b04e2527146101c1578063cc1e2cb0146101d7578063fc0c546a1461020f57600080fd5b806312065fe0146100ac57806317849646146100ce5780632671f32f146100e457806333ac26271461010657806373f1f9991461011957806381d12c581461012c575b600080fd5b3480156100b857600080fd5b50475b6040519081526020015b60405180910390f35b3480156100da57600080fd5b506100bb60055481565b3480156100f057600080fd5b506101046100ff3660046105ec565b61022f565b005b6101046101143660046106be565b6102fb565b6101046101273660046106ef565b610462565b34801561013857600080fd5b5061014c6101473660046106be565b6104ed565b6040516100c595949392919061071b565b34801561016957600080fd5b506100bb60065481565b34801561017f57600080fd5b506100bb60025481565b34801561019557600080fd5b506100bb6101a4366004610799565b600460209081526000928352604080842090915290825290205481565b3480156101cd57600080fd5b506100bb60015481565b3480156101e357600080fd5b506007546101f7906001600160a01b031681565b6040516001600160a01b0390911681526020016100c5565b34801561021b57600080fd5b506000546101f7906001600160a01b031681565b600180600082825461024191906107c9565b90915550506040805160a08101825263ffffffff8084168252336020808401918252868316848601908152600060608601818152608087018b815260018054845260039095529790912086518154955193518716600160c01b0263ffffffff60c01b196001600160a01b0395909516640100000000026001600160c01b031990971691909716179490941791909116939093178255915191810191909155915190919060028201906102f39082610870565b505050505050565b60065434101561035f5760405162461bcd60e51b815260206004820152602560248201527f4d696e696d756d20446f6e6174696f6e20416d6f756e74206e6f7420736174696044820152641cd99a595960da1b606482015260840160405180910390fd5b60008181526003602090815260408083206004835281842033855290925282208054919234926103909084906107c9565b92505081905550348160010160008282546103ab91906107c9565b9250508190555034600560008282546103c491906107c9565b925050819055506001600260008282546103de91906107c9565b90915550506000546040516323b872dd60e01b81523360048201523060248201523460448201526001600160a01b03909116906323b872dd906064016020604051808303816000875af1158015610439573d6000803e3d6000fd5b505050506040513d601f19601f8201168201806040525081019061045d9190610930565b505050565b6000546007546040516323b872dd60e01b81526001600160a01b039182166004820152818516602482015260448101849052849291909116906323b872dd906064016020604051808303816000875af11580156104c3573d6000803e3d6000fd5b505050506040513d601f19601f820116820180604052508101906104e79190610930565b50505050565b60036020526000908152604090208054600182015460028301805463ffffffff808516956001600160a01b0364010000000087041695600160c01b90049091169392909161053a906107f0565b80601f0160208091040260200160405190810160405280929190818152602001828054610566906107f0565b80156105b35780601f10610588576101008083540402835291602001916105b3565b820191906000526020600020905b81548152906001019060200180831161059657829003601f168201915b5050505050905085565b634e487b7160e01b600052604160045260246000fd5b803563ffffffff811681146105e757600080fd5b919050565b60008060006060848603121561060157600080fd5b833567ffffffffffffffff8082111561061957600080fd5b818601915086601f83011261062d57600080fd5b81358181111561063f5761063f6105bd565b604051601f8201601f19908116603f01168101908382118183101715610667576106676105bd565b8160405282815289602084870101111561068057600080fd5b8260208601602083013760006020848301015280975050505050506106a7602085016105d3565b91506106b5604085016105d3565b90509250925092565b6000602082840312156106d057600080fd5b5035919050565b6001600160a01b03811681146106ec57600080fd5b50565b6000806040838503121561070257600080fd5b823561070d816106d7565b946020939093013593505050565b600063ffffffff8088168352602060018060a01b03881681850152818716604085015285606085015260a06080850152845191508160a085015260005b828110156107745785810182015185820160c001528101610758565b5050600060c0828501015260c0601f19601f8301168401019150509695505050505050565b600080604083850312156107ac57600080fd5b8235915060208301356107be816106d7565b809150509250929050565b808201808211156107ea57634e487b7160e01b600052601160045260246000fd5b92915050565b600181811c9082168061080457607f821691505b60208210810361082457634e487b7160e01b600052602260045260246000fd5b50919050565b601f82111561045d57600081815260208120601f850160051c810160208610156108515750805b601f850160051c820191505b818110156102f35782815560010161085d565b815167ffffffffffffffff81111561088a5761088a6105bd565b61089e8161089884546107f0565b8461082a565b602080601f8311600181146108d357600084156108bb5750858301515b600019600386901b1c1916600185901b1785556102f3565b600085815260208120601f198616915b82811015610902578886015182559484019460019091019084016108e3565b50858210156109205787850151600019600388901b60f8161c191681555b5050505050600190811b01905550565b60006020828403121561094257600080fd5b8151801515811461095257600080fd5b939250505056fea2646970667358221220caf894c6d91a2b23262db7920bcbd1a61d60e4b2c861a1908d88c1a59020422f64736f6c63430008130033",
    "sourcePath": "/media/hrishik18/New Volume/Study/VScode/KJ_SEM6/NGO Management System/truffle/contracts/1_Donation.sol",
    "compiler": {
        "name": "solc",
        "version": "0.8.19+commit.7dd6d404"
    },
    "functionHashes": {
        "Donate(uint256)": "33ac2627",
        "DonationCount()": "a265d74b",
        "DonorAmount(uint256,address)": "afe9ee3d",
        "ReqCount()": "b04e2527",
        "getBalance()": "12065fe0",
        "makeRequest(string,uint32,uint32)": "2671f32f",
        "minAmount()": "9b2cb5d8",
        "org()": "cc1e2cb0",
        "requests(uint256)": "81d12c58",
        "sendfund(address,uint256)": "73f1f999",
        "token()": "fc0c546a",
        "totalDonationAmount()": "17849646"
    },
    "gasEstimates": {
        "creation": {
            "codeDepositCost": "489400",
            "executionCost": "46865",
            "totalCost": "536265"
        },
        "external": {
            "Donate(uint256)": "infinite",
            "DonationCount()": "2306",
            "DonorAmount(uint256,address)": "2649",
            "ReqCount()": "2350",
            "getBalance()": "173",
            "makeRequest(string,uint32,uint32)": "infinite",
            "minAmount()": "2284",
            "org()": "2425",
            "requests(uint256)": "infinite",
            "sendfund(address,uint256)": "infinite",
            "token()": "2447",
            "totalDonationAmount()": "2307"
        }
    }
}